{
  "_format": "hh-sol-artifact-1",
  "contractName": "Staking",
  "sourceName": "contracts/Staking.sol",
  "abi": [
    {
      "inputs": [
        {
          "internalType": "contract IERC20",
          "name": "_token",
          "type": "address"
        },
        {
          "internalType": "uint256",
          "name": "_rewardRate",
          "type": "uint256"
        }
      ],
      "stateMutability": "nonpayable",
      "type": "constructor"
    },
    {
      "inputs": [
        {
          "internalType": "address",
          "name": "user",
          "type": "address"
        }
      ],
      "name": "calculateReward",
      "outputs": [
        {
          "internalType": "uint256",
          "name": "",
          "type": "uint256"
        }
      ],
      "stateMutability": "view",
      "type": "function"
    },
    {
      "inputs": [
        {
          "internalType": "address",
          "name": "user",
          "type": "address"
        }
      ],
      "name": "checkLockerAmount",
      "outputs": [
        {
          "internalType": "uint256",
          "name": "",
          "type": "uint256"
        }
      ],
      "stateMutability": "view",
      "type": "function"
    },
    {
      "inputs": [],
      "name": "claimReward",
      "outputs": [],
      "stateMutability": "nonpayable",
      "type": "function"
    },
    {
      "inputs": [
        {
          "internalType": "uint256",
          "name": "amount",
          "type": "uint256"
        }
      ],
      "name": "deposit",
      "outputs": [],
      "stateMutability": "nonpayable",
      "type": "function"
    },
    {
      "inputs": [],
      "name": "rewardRate",
      "outputs": [
        {
          "internalType": "uint256",
          "name": "",
          "type": "uint256"
        }
      ],
      "stateMutability": "view",
      "type": "function"
    },
    {
      "inputs": [
        {
          "internalType": "address",
          "name": "",
          "type": "address"
        }
      ],
      "name": "stakers",
      "outputs": [
        {
          "internalType": "uint256",
          "name": "totalStaked",
          "type": "uint256"
        },
        {
          "internalType": "uint256",
          "name": "lastStakedTimestamp",
          "type": "uint256"
        },
        {
          "internalType": "uint256",
          "name": "reward",
          "type": "uint256"
        }
      ],
      "stateMutability": "view",
      "type": "function"
    },
    {
      "inputs": [],
      "name": "token",
      "outputs": [
        {
          "internalType": "contract IERC20",
          "name": "",
          "type": "address"
        }
      ],
      "stateMutability": "view",
      "type": "function"
    },
    {
      "inputs": [
        {
          "internalType": "uint256",
          "name": "amount",
          "type": "uint256"
        }
      ],
      "name": "withdraw",
      "outputs": [],
      "stateMutability": "nonpayable",
      "type": "function"
    }
  ],
  "bytecode": "0x608060405234801561001057600080fd5b506040516106ee3803806106ee83398101604081905261002f91610058565b600080546001600160a01b0319166001600160a01b039390931692909217909155600155610092565b6000806040838503121561006b57600080fd5b82516001600160a01b038116811461008257600080fd5b6020939093015192949293505050565b61064d806100a16000396000f3fe608060405234801561001057600080fd5b50600436106100885760003560e01c8063b6b55f251161005b578063b6b55f2514610130578063b88a802f14610143578063d82e39621461014b578063fc0c546a1461015e57600080fd5b80632e1a7d4d1461008d578063562577e3146100a25780637b0a47ee146100de5780639168ae72146100e7575b600080fd5b6100a061009b36600461052d565b610189565b005b6100cb6100b0366004610546565b6001600160a01b031660009081526002602052604090205490565b6040519081526020015b60405180910390f35b6100cb60015481565b6101156100f5366004610546565b600260208190526000918252604090912080546001820154919092015483565b604080519384526020840192909252908201526060016100d5565b6100a061013e36600461052d565b6102a8565b6100a06103d6565b6100cb610159366004610546565b610494565b600054610171906001600160a01b031681565b6040516001600160a01b0390911681526020016100d5565b33600090815260026020526040902080548211156101ee5760405162461bcd60e51b815260206004820152601860248201527f4e6f7420656e6f756768207374616b656420746f6b656e73000000000000000060448201526064015b60405180910390fd5b6102056101fa33610494565b6002830154906104f6565b600282015580546102169083610509565b815542600182015560005460405163a9059cbb60e01b8152336004820152602481018490526001600160a01b039091169063a9059cbb906044015b602060405180830381600087803b15801561026b57600080fd5b505af115801561027f573d6000803e3d6000fd5b505050506040513d601f19601f820116820180604052508101906102a3919061056f565b505050565b600081116102f85760405162461bcd60e51b815260206004820152601d60248201527f416d6f756e74206d7573742062652067726561746572207468616e203000000060448201526064016101e5565b6000546040517f23b872dd000000000000000000000000000000000000000000000000000000008152336004820152306024820152604481018390526001600160a01b03909116906323b872dd90606401602060405180830381600087803b15801561036357600080fd5b505af1158015610377573d6000803e3d6000fd5b505050506040513d601f19601f8201168201806040525081019061039b919061056f565b50336000818152600260205260409020906103b9906101fa90610494565b600282015580546103ca90836104f6565b81554260019091015550565b336000818152600260205260408120916103fe906103f390610494565b6002840154906104f6565b9050600081116104505760405162461bcd60e51b815260206004820152601260248201527f4e6f2072657761726420746f20636c61696d000000000000000000000000000060448201526064016101e5565b6000600283018190554260018401555460405163a9059cbb60e01b8152336004820152602481018390526001600160a01b039091169063a9059cbb90604401610251565b6001600160a01b0381166000908152600260205260408120600181015482906104be904290610509565b90506104ee60646104e8836104e2600154876000015461051590919063ffffffff16565b90610515565b90610521565b949350505050565b600061050282846105a7565b9392505050565b600061050282846105bf565b600061050282846105d6565b600061050282846105f5565b60006020828403121561053f57600080fd5b5035919050565b60006020828403121561055857600080fd5b81356001600160a01b038116811461050257600080fd5b60006020828403121561058157600080fd5b8151801515811461050257600080fd5b634e487b7160e01b600052601160045260246000fd5b600082198211156105ba576105ba610591565b500190565b6000828210156105d1576105d1610591565b500390565b60008160001904831182151516156105f0576105f0610591565b500290565b60008261061257634e487b7160e01b600052601260045260246000fd5b50049056fea2646970667358221220d533379cdf3e16af6ae0fd1267372201b24ff13f096169283023bad1e03eee9e64736f6c63430008090033",
  "linkReferences": {},
  "deployedLinkReferences": {}
}